{
  "_format": "hh-sol-artifact-1",
  "contractName": "SimpleDEX",
  "sourceName": "contracts/SimpleDEX.sol",
  "abi": [
    {
      "inputs": [
        {
          "internalType": "address",
          "name": "_tokenA",
          "type": "address"
        },
        {
          "internalType": "address",
          "name": "_tokenB",
          "type": "address"
        }
      ],
      "stateMutability": "nonpayable",
      "type": "constructor"
    },
    {
      "anonymous": false,
      "inputs": [
        {
          "indexed": true,
          "internalType": "address",
          "name": "provider",
          "type": "address"
        },
        {
          "indexed": false,
          "internalType": "uint256",
          "name": "amountA",
          "type": "uint256"
        },
        {
          "indexed": false,
          "internalType": "uint256",
          "name": "amountB",
          "type": "uint256"
        }
      ],
      "name": "LiquidityAdded",
      "type": "event"
    },
    {
      "anonymous": false,
      "inputs": [
        {
          "indexed": true,
          "internalType": "address",
          "name": "provider",
          "type": "address"
        },
        {
          "indexed": false,
          "internalType": "uint256",
          "name": "amountA",
          "type": "uint256"
        },
        {
          "indexed": false,
          "internalType": "uint256",
          "name": "amountB",
          "type": "uint256"
        }
      ],
      "name": "LiquidityRemoved",
      "type": "event"
    },
    {
      "anonymous": false,
      "inputs": [
        {
          "indexed": true,
          "internalType": "address",
          "name": "trader",
          "type": "address"
        },
        {
          "indexed": false,
          "internalType": "address",
          "name": "tokenIn",
          "type": "address"
        },
        {
          "indexed": false,
          "internalType": "uint256",
          "name": "amountIn",
          "type": "uint256"
        },
        {
          "indexed": false,
          "internalType": "address",
          "name": "tokenOut",
          "type": "address"
        },
        {
          "indexed": false,
          "internalType": "uint256",
          "name": "amountOut",
          "type": "uint256"
        }
      ],
      "name": "Swap",
      "type": "event"
    },
    {
      "inputs": [
        {
          "internalType": "uint256",
          "name": "amountA",
          "type": "uint256"
        },
        {
          "internalType": "uint256",
          "name": "amountB",
          "type": "uint256"
        }
      ],
      "name": "addLiquidity",
      "outputs": [],
      "stateMutability": "nonpayable",
      "type": "function"
    },
    {
      "inputs": [
        {
          "internalType": "address",
          "name": "_token",
          "type": "address"
        }
      ],
      "name": "getPrice",
      "outputs": [
        {
          "internalType": "uint256",
          "name": "",
          "type": "uint256"
        }
      ],
      "stateMutability": "view",
      "type": "function"
    },
    {
      "inputs": [],
      "name": "liquidityA",
      "outputs": [
        {
          "internalType": "uint256",
          "name": "",
          "type": "uint256"
        }
      ],
      "stateMutability": "view",
      "type": "function"
    },
    {
      "inputs": [],
      "name": "liquidityB",
      "outputs": [
        {
          "internalType": "uint256",
          "name": "",
          "type": "uint256"
        }
      ],
      "stateMutability": "view",
      "type": "function"
    },
    {
      "inputs": [
        {
          "internalType": "uint256",
          "name": "amountA",
          "type": "uint256"
        },
        {
          "internalType": "uint256",
          "name": "amountB",
          "type": "uint256"
        }
      ],
      "name": "removeLiquidity",
      "outputs": [],
      "stateMutability": "nonpayable",
      "type": "function"
    },
    {
      "inputs": [
        {
          "internalType": "uint256",
          "name": "amountAIn",
          "type": "uint256"
        }
      ],
      "name": "swapAforB",
      "outputs": [],
      "stateMutability": "nonpayable",
      "type": "function"
    },
    {
      "inputs": [
        {
          "internalType": "uint256",
          "name": "amountBIn",
          "type": "uint256"
        }
      ],
      "name": "swapBforA",
      "outputs": [],
      "stateMutability": "nonpayable",
      "type": "function"
    }
  ],
  "bytecode": "0x608060405234801561001057600080fd5b506040516116073803806116078339818101604052810190610032919061011e565b81600160006101000a81548173ffffffffffffffffffffffffffffffffffffffff021916908373ffffffffffffffffffffffffffffffffffffffff16021790555080600260006101000a81548173ffffffffffffffffffffffffffffffffffffffff021916908373ffffffffffffffffffffffffffffffffffffffff160217905550505061015e565b600080fd5b600073ffffffffffffffffffffffffffffffffffffffff82169050919050565b60006100eb826100c0565b9050919050565b6100fb816100e0565b811461010657600080fd5b50565b600081519050610118816100f2565b92915050565b60008060408385031215610135576101346100bb565b5b600061014385828601610109565b925050602061015485828601610109565b9150509250929050565b61149a8061016d6000396000f3fe608060405234801561001057600080fd5b506004361061007d5760003560e01c80638014a7aa1161005b5780638014a7aa146100ee5780639cd441da1461010a5780639d7de6b314610126578063e4f1f70a146101425761007d565b806324731cff1461008257806341976e09146100a057806379629b69146100d0575b600080fd5b61008a61015e565b6040516100979190610dc0565b60405180910390f35b6100ba60048036038101906100b59190610e3e565b610164565b6040516100c79190610dc0565b60405180910390f35b6100d86102f8565b6040516100e59190610dc0565b60405180910390f35b61010860048036038101906101039190610e97565b6102fe565b005b610124600480360381019061011f9190610ec4565b610566565b005b610140600480360381019061013b9190610ec4565b61080f565b005b61015c60048036038101906101579190610e97565b610ab8565b005b60045481565b6000600160009054906101000a900473ffffffffffffffffffffffffffffffffffffffff1673ffffffffffffffffffffffffffffffffffffffff168273ffffffffffffffffffffffffffffffffffffffff16148061020f5750600260009054906101000a900473ffffffffffffffffffffffffffffffffffffffff1673ffffffffffffffffffffffffffffffffffffffff168273ffffffffffffffffffffffffffffffffffffffff16145b61024e576040517f08c379a000000000000000000000000000000000000000000000000000000000815260040161024590610f61565b60405180910390fd5b600160009054906101000a900473ffffffffffffffffffffffffffffffffffffffff1673ffffffffffffffffffffffffffffffffffffffff168273ffffffffffffffffffffffffffffffffffffffff16036102cd57600354670de0b6b3a76400006004546102bc9190610fb0565b6102c69190611021565b90506102f3565b600454670de0b6b3a76400006003546102e69190610fb0565b6102f09190611021565b90505b919050565b60035481565b60008111610341576040517f08c379a00000000000000000000000000000000000000000000000000000000081526004016103389061109e565b60405180910390fd5b600061035282600454600354610d20565b9050600260009054906101000a900473ffffffffffffffffffffffffffffffffffffffff1673ffffffffffffffffffffffffffffffffffffffff166323b872dd3330856040518463ffffffff1660e01b81526004016103b3939291906110cd565b6020604051808303816000875af11580156103d2573d6000803e3d6000fd5b505050506040513d601f19601f820116820180604052508101906103f6919061113c565b50600160009054906101000a900473ffffffffffffffffffffffffffffffffffffffff1673ffffffffffffffffffffffffffffffffffffffff1663a9059cbb33836040518363ffffffff1660e01b8152600401610454929190611169565b6020604051808303816000875af1158015610473573d6000803e3d6000fd5b505050506040513d601f19601f82011682018060405250810190610497919061113c565b5081600460008282546104aa9190611192565b9250508190555080600360008282546104c391906111c6565b925050819055503373ffffffffffffffffffffffffffffffffffffffff167f5380cf97d8f645d3c4896da60c053458dca03a3a31cec642ac80e1ddf0d8d02a600260009054906101000a900473ffffffffffffffffffffffffffffffffffffffff1684600160009054906101000a900473ffffffffffffffffffffffffffffffffffffffff168560405161055a94939291906111fa565b60405180910390a25050565b3373ffffffffffffffffffffffffffffffffffffffff1660008054906101000a900473ffffffffffffffffffffffffffffffffffffffff1673ffffffffffffffffffffffffffffffffffffffff16146105f4576040517f08c379a00000000000000000000000000000000000000000000000000000000081526004016105eb906112b1565b60405180910390fd5b6000821180156106045750600081115b610643576040517f08c379a000000000000000000000000000000000000000000000000000000000815260040161063a90611343565b60405180910390fd5b600160009054906101000a900473ffffffffffffffffffffffffffffffffffffffff1673ffffffffffffffffffffffffffffffffffffffff166323b872dd3330856040518463ffffffff1660e01b81526004016106a2939291906110cd565b6020604051808303816000875af11580156106c1573d6000803e3d6000fd5b505050506040513d601f19601f820116820180604052508101906106e5919061113c565b50600260009054906101000a900473ffffffffffffffffffffffffffffffffffffffff1673ffffffffffffffffffffffffffffffffffffffff166323b872dd3330846040518463ffffffff1660e01b8152600401610745939291906110cd565b6020604051808303816000875af1158015610764573d6000803e3d6000fd5b505050506040513d601f19601f82011682018060405250810190610788919061113c565b50816003600082825461079b9190611192565b9250508190555080600460008282546107b49190611192565b925050819055503373ffffffffffffffffffffffffffffffffffffffff167fac1d76749e5447b7b16f5ab61447e1bd502f3bb4807af3b28e620d1700a6ee458383604051610803929190611363565b60405180910390a25050565b3373ffffffffffffffffffffffffffffffffffffffff1660008054906101000a900473ffffffffffffffffffffffffffffffffffffffff1673ffffffffffffffffffffffffffffffffffffffff161461089d576040517f08c379a0000000000000000000000000000000000000000000000000000000008152600401610894906112b1565b60405180910390fd5b60035482111580156108b157506004548111155b6108f0576040517f08c379a00000000000000000000000000000000000000000000000000000000081526004016108e7906113d8565b60405180910390fd5b816003600082825461090291906111c6565b92505081905550806004600082825461091b91906111c6565b92505081905550600160009054906101000a900473ffffffffffffffffffffffffffffffffffffffff1673ffffffffffffffffffffffffffffffffffffffff1663a9059cbb33846040518363ffffffff1660e01b815260040161097f929190611169565b6020604051808303816000875af115801561099e573d6000803e3d6000fd5b505050506040513d601f19601f820116820180604052508101906109c2919061113c565b50600260009054906101000a900473ffffffffffffffffffffffffffffffffffffffff1673ffffffffffffffffffffffffffffffffffffffff1663a9059cbb33836040518363ffffffff1660e01b8152600401610a20929190611169565b6020604051808303816000875af1158015610a3f573d6000803e3d6000fd5b505050506040513d601f19601f82011682018060405250810190610a63919061113c565b503373ffffffffffffffffffffffffffffffffffffffff167f96cd817c6329656790ef8fba7675405193677d39619571282f5e21f3a98cd0598383604051610aac929190611363565b60405180910390a25050565b60008111610afb576040517f08c379a0000000000000000000000000000000000000000000000000000000008152600401610af29061109e565b60405180910390fd5b6000610b0c82600354600454610d20565b9050600160009054906101000a900473ffffffffffffffffffffffffffffffffffffffff1673ffffffffffffffffffffffffffffffffffffffff166323b872dd3330856040518463ffffffff1660e01b8152600401610b6d939291906110cd565b6020604051808303816000875af1158015610b8c573d6000803e3d6000fd5b505050506040513d601f19601f82011682018060405250810190610bb0919061113c565b50600260009054906101000a900473ffffffffffffffffffffffffffffffffffffffff1673ffffffffffffffffffffffffffffffffffffffff1663a9059cbb33836040518363ffffffff1660e01b8152600401610c0e929190611169565b6020604051808303816000875af1158015610c2d573d6000803e3d6000fd5b505050506040513d601f19601f82011682018060405250810190610c51919061113c565b508160036000828254610c649190611192565b925050819055508060046000828254610c7d91906111c6565b925050819055503373ffffffffffffffffffffffffffffffffffffffff167f5380cf97d8f645d3c4896da60c053458dca03a3a31cec642ac80e1ddf0d8d02a600160009054906101000a900473ffffffffffffffffffffffffffffffffffffffff1684600260009054906101000a900473ffffffffffffffffffffffffffffffffffffffff1685604051610d1494939291906111fa565b60405180910390a25050565b60008084118015610d315750600083115b8015610d3d5750600082115b610d7c576040517f08c379a0000000000000000000000000000000000000000000000000000000008152600401610d7390611444565b60405180910390fd5b8383610d889190611192565b8285610d949190610fb0565b610d9e9190611021565b90509392505050565b6000819050919050565b610dba81610da7565b82525050565b6000602082019050610dd56000830184610db1565b92915050565b600080fd5b600073ffffffffffffffffffffffffffffffffffffffff82169050919050565b6000610e0b82610de0565b9050919050565b610e1b81610e00565b8114610e2657600080fd5b50565b600081359050610e3881610e12565b92915050565b600060208284031215610e5457610e53610ddb565b5b6000610e6284828501610e29565b91505092915050565b610e7481610da7565b8114610e7f57600080fd5b50565b600081359050610e9181610e6b565b92915050565b600060208284031215610ead57610eac610ddb565b5b6000610ebb84828501610e82565b91505092915050565b60008060408385031215610edb57610eda610ddb565b5b6000610ee985828601610e82565b9250506020610efa85828601610e82565b9150509250929050565b600082825260208201905092915050565b7f496e76616c696420746f6b656e00000000000000000000000000000000000000600082015250565b6000610f4b600d83610f04565b9150610f5682610f15565b602082019050919050565b60006020820190508181036000830152610f7a81610f3e565b9050919050565b7f4e487b7100000000000000000000000000000000000000000000000000000000600052601160045260246000fd5b6000610fbb82610da7565b9150610fc683610da7565b9250828202610fd481610da7565b91508282048414831517610feb57610fea610f81565b5b5092915050565b7f4e487b7100000000000000000000000000000000000000000000000000000000600052601260045260246000fd5b600061102c82610da7565b915061103783610da7565b92508261104757611046610ff2565b5b828204905092915050565b7f416d6f756e74206d7573742062652067726561746572207468616e207a65726f600082015250565b6000611088602083610f04565b915061109382611052565b602082019050919050565b600060208201905081810360008301526110b78161107b565b9050919050565b6110c781610e00565b82525050565b60006060820190506110e260008301866110be565b6110ef60208301856110be565b6110fc6040830184610db1565b949350505050565b60008115159050919050565b61111981611104565b811461112457600080fd5b50565b60008151905061113681611110565b92915050565b60006020828403121561115257611151610ddb565b5b600061116084828501611127565b91505092915050565b600060408201905061117e60008301856110be565b61118b6020830184610db1565b9392505050565b600061119d82610da7565b91506111a883610da7565b92508282019050808211156111c0576111bf610f81565b5b92915050565b60006111d182610da7565b91506111dc83610da7565b92508282039050818111156111f4576111f3610f81565b5b92915050565b600060808201905061120f60008301876110be565b61121c6020830186610db1565b61122960408301856110be565b6112366060830184610db1565b95945050505050565b7f4f6e6c7920636f6e7472616374206f776e65722063616e2063616c6c2074686960008201527f732066756e6374696f6e00000000000000000000000000000000000000000000602082015250565b600061129b602a83610f04565b91506112a68261123f565b604082019050919050565b600060208201905081810360008301526112ca8161128e565b9050919050565b7f416d6f756e7473206d7573742062652067726561746572207468616e207a657260008201527f6f00000000000000000000000000000000000000000000000000000000000000602082015250565b600061132d602183610f04565b9150611338826112d1565b604082019050919050565b6000602082019050818103600083015261135c81611320565b9050919050565b60006040820190506113786000830185610db1565b6113856020830184610db1565b9392505050565b7f496e73756666696369656e74206c697175696469747900000000000000000000600082015250565b60006113c2601683610f04565b91506113cd8261138c565b602082019050919050565b600060208201905081810360008301526113f1816113b5565b9050919050565b7f496e76616c6964207265736572766573206f7220696e70757400000000000000600082015250565b600061142e601983610f04565b9150611439826113f8565b602082019050919050565b6000602082019050818103600083015261145d81611421565b905091905056fea2646970667358221220c4680f6ebf35ce8b58a7cec0ee533db886bb06fdda7d0de8135b96a7dacc3d5f64736f6c634300081c0033",
  "linkReferences": {},
  "deployedLinkReferences": {}
}